S027000047726164756174696F6E5F50726F6A6563745F46696E616C5F4D61737465722E73726563A5
S11300000C9442000C945F000C945F000C945F000D
S11300100C945F000C945F000C945F000C945F00E0
S11300200C945F000C945F000C945F000C945F00D0
S11300300C945F000C9426040C945F000C945F00F5
S11300400C945F000C945F000C945F000C945F00B0
S11300500C945F0072008F00AC00C900E60003013D
S113006020013D015A0177019401B101DE01E9014A
S1130070F401FF010A02150220022B02360241029A
S11300804C02570211241FBECFE5D8E0DEBFCDBF1E
S113009010E0A0E6B0E0E6E5F9E002C005900D92BC
S11300A0A63BB107D9F720E0A6EBB0E001C01D9252
S11300B0A83BB207E1F70E94E9030C94A9040C944D
S11300C00000962FE82FE695E695E69587704E2F6B
S11300D050E04C30510508F060C1FA01E65DFF4F75
S11300E00C94A304913069F44BB321E030E0B901DE
S11300F002C0660F771F8A95E2F7CB01842B8BBB76
S113010008954BB321E030E0B90102C0660F771FB8
S11301108A95E2F7CB01809584238BBB08959130B7
S113012069F448B321E030E0B90102C0660F771FDB
S11301308A95E2F7CB01842B88BB089548B321E06C
S113014030E0B90102C0660F771F8A95E2F7CB0150
S11301508095842388BB0895913069F445B321E0E8
S113016030E0B90102C0660F771F8A95E2F7CB0130
S1130170842B85BB089545B321E030E0B90102C06A
S1130180660F771F8A95E2F7CB018095842385BBA0
S11301900895913069F442B321E030E0B90102C01E
S11301A0660F771F8A95E2F7CB01842B82BB0895F3
S11301B042B321E030E0B90102C0660F771F8A958F
S11301C0E2F7CB018095842382BB0895913069F4D2
S11301D04BB121E030E0B90102C0660F771F8A9568
S11301E0E2F7CB01842B8BB908954BB121E030E0C9
S11301F0B90102C0660F771F8A95E2F7CB0180959B
S113020084238BB90895913069F44AB121E030E038
S1130210B90102C0660F771F8A95E2F7CB01842BE0
S11302208AB908954AB121E030E0B90102C0660FED
S1130230771F8A95E2F7CB01809584238AB90895C4
S1130240913069F440B521E030E0B90102C0660F95
S1130250771F8A95E2F7CB01842B80BD089540B5C2
S113026021E030E0B90102C0660F771F8A95E2F7FA
S1130270CB018095842380BD0895913069F44CB1FD
S113028021E030E0B90102C0660F771F8A95E2F7DA
S1130290CB01842B8CB908954CB121E030E0B90135
S11302A002C0660F771F8A95E2F7CB0180958423FD
S11302B08CB90895913069F449B121E030E0B90175
S11302C002C0660F771F8A95E2F7CB01842B89B9A8
S11302D0089549B121E030E0B90102C0660F771FEB
S11302E08A95E2F7CB018095842389B908959130EA
S11302F069F440B521E030E0B90102C0660F771F10
S11303008A95E2F7CB01842B80BD089540B521E0A6
S113031030E0B90102C0660F771F8A95E2F7CB017E
S11303208095842380BD0895913069F44DB121E016
S113033030E0B90102C0660F771F8A95E2F7CB015E
S1130340842B8DB908954DB121E030E0B90102C08C
S1130350660F771F8A95E2F7CB01809584238DB9C8
S11303600895913069F44EB121E030E0B90102C042
S1130370660F771F8A95E2F7CB01842B8EB9089517
S11303804EB121E030E0B90102C0660F771F8A95B3
S1130390E2F7CB01809584238EB90895E82FE69582
S11303A0E695E69587704E2F50E04C30510508F0E5
S11303B089C0FA01EA5CFF4F0C94A30429B330E02E
S11303C0A90102C0559547958A95E2F7CA01817043
S11303D0089526B330E0A90102C0559547958A9542
S11303E0E2F7CA018170089523B330E0A90102C085
S11303F0559547958A95E2F7CA018170089520B30F
S113040030E0A90102C0559547958A95E2F7CA01E3
S1130410817008952BB130E0A90102C0559547952C
S11304208A95E2F7CA01817008952AB130E0A901E2
S113043002C0559547958A95E2F7CA0181700895DF
S113044020B530E0A90102C0559547958A95E2F799
S1130450CA01817008952CB130E0A90102C05595FC
S113046047958A95E2F7CA018170089529B130E071
S1130470A90102C0559547958A95E2F7CA01817092
S1130480089520B530E0A90102C0559547958A9595
S1130490E2F7CA01817008952DB130E0A90102C0CC
S11304A0559547958A95E2F7CA01817008952EB152
S11304B030E0A90102C0559547958A95E2F7CA0133
S11304C08170089580E0089580E0A0C0982F9695EB
S11304D096959695282F2770913061F138F09230D7
S11304E009F44CC0933009F46DC08FC0E82FF0E0DC
S11304F0EE0FFF1FE05AFF4F9081913069F49AB3D9
S113050041E050E0BA0102C0660F771F2A95E2F776
S11305109B01292B2ABB79C09AB341E050E0BA0170
S113052002C0660F771F2A95E2F79B0120952923C5
S11305302ABB6BC0E82FF0E0EE0FFF1FE05AFF4F1D
S11305409081913069F497B341E050E0BA0102C060
S1130550660F771F2A95E2F79B01292B27BB55C00D
S113056097B341E050E0BA0102C0660F771F2A95A5
S1130570E2F79B012095292327BB47C0E82FF0E031
S1130580EE0FFF1FE05AFF4F9081913069F494B34E
S113059041E050E0BA0102C0660F771F2A95E2F7E6
S11305A09B01292B24BB31C094B341E050E0BA0134
S11305B002C0660F771F2A95E2F79B012095292335
S11305C024BB23C0E82FF0E0EE0FFF1FE05AFF4FDB
S11305D09081913069F491B341E050E0BA0102C0D6
S11305E0660F771F2A95E2F79B01292B21BB0DC0CB
S11305F091B341E050E0BA0102C0660F771F2A951B
S1130600E2F79B012095292321BB8F5F803208F4F8
S11306105DCF0895CF93C82F8BB38F709C2F907F9D
S1130620892B8BBB60E089E00E94610060E08BE075
S11306300E9461002FEF31EE84E021503040804071
S1130640E1F700C0000061E08BE00E9461008FE1EF
S11306509EE40197F1F700C000002BB330E1C39F83
S1130660C0011124922F9F70892B8BBB60E08BE01B
S11306700E9461008FEF91EE24E081509040204071
S1130680E1F700C0000061E08BE00E9461008FE3AD
S11306909FE10197F1F700C00000CF9108952FEF7B
S11306A089EF90E0215080409040E1F700C00000C5
S11306B060E08AE00E94610083E30E940A032FEF56
S11306C082E597E0215080409040E1F700C00000AF
S11306D082E30E940A0388E20E940A0386E00E94E1
S11306E00A038CE00E940A0381E00E940A038FE35C
S11306F09FE10197F1F700C000000895CF93C82F40
S11307008BB38F709C2F907F892B8BBB61E089E02A
S11307100E94610060E08BE00E9461002FEF31EEE7
S113072084E0215030408040E1F700C0000061E0E7
S11307308BE00E9461008FE39FE10197F1F700C015
S113074000002BB330E1C39FC0011124922F9F708E
S1130750892B8BBB60E08BE00E9461008FEF91EEF0
S113076024E0815090402040E1F700C0000061E0A7
S11307708BE00E9461008FE39FE10197F1F700C0D5
S11307800000CF9108950F931F93CF938C01C0E085
S113079003C00E947E03CF5FF801EC0FF11D80813E
S11307A08111F7CFCF911F910F910895CF93C0E09E
S11307B009C08C2F8F7080680E940A0380E00E9419
S11307C07E03CF5FC031A8F380E80E940A03CF9173
S11307D008950E9464020E9480040E946B040E9497
S11307E04F0360E08CE00E94610078948091B60031
S11307F0813341F480E38093B60080EA90E00E9464
S1130800C303F4CF823351F480E38093B6000E9493
S1130810D60385EA90E00E94C303E8CF883351F4FD
S113082080E38093B6000E94D6038BEA90E00E9496
S1130830C303DCCF8933D1F680E38093B6000E94F2
S1130840D60380EB90E00E94C303D0CF1F920F9297
S11308500FB60F9211242F933F934F935F936F938F
S11308607F938F939F93AF93BF93EF93FF930E94D4
S11308709C048093B600813331F481E00E947804B3
S11308808093B70017C0823331F482E00E94780469
S11308908093B7000FC0883331F488E00E94780455
S11308A08093B70007C0893329F489E00E94780453
S11308B08093B700FF91EF91BF91AF919F918F917A
S11308C07F916F915F914F913F912F910F900FBE48
S11308D00F901F90189561E08CE00E94610061E028
S11308E086E50E94610061E084E50E94610008954C
S11308F08FB98FE50E94CE018823D9F38FB1089573
S113090061E08BE20E94610061E08CE20E94610080
S113091061E08FE20E94610061E087E30E94610070
S113092061E081E30E94610061E082E30E94610072
S113093010BC87E689B9089587E20E94CE01882316
S1130940D9F38CB10895EE0FFF1F0590F491E02DBB
S10909500994F894FFCFA6
S1130956010101010101010101010101010101017D
S11309660101010101010101010001000000010072
S1130976010101010101010101010101010001005F
S1130986000001010101010101010101010101014F
S113099631204F4E0031204F46460032204F4E0044
S10909A632204F4646001A
S9030000FC
