:100000000C9431000C944E000C944E000C944E0055
:100010000C944E000C944E000C944E000C944E0028
:100020000C944E000C944E000C944E000C944E0018
:100030000C94F8020C944E000C944E000C944E005C
:100040000C944E000C944E000C944E000C944E00F8
:100050000C944E0061007E009B00B800D500F200B9
:100060000F0111241FBECFE5D8E0DEBFCDBF10E0E9
:10007000A0E6B0E0ECEAF6E002C005900D92A23CEA
:10008000B107D9F720E0A2ECB0E001C01D92A33C7B
:10009000B207E1F70E94B1020C9454030C940000E3
:1000A000962FE82FE695E695E69587704E2F50E05F
:1000B0004730510508F0CFC0FA01E65DFF4F0C94C0
:1000C0004E03913069F44BB321E030E0B90102C036
:1000D000660F771F8A95E2F7CB01842B8BBB0895BF
:1000E0004BB321E030E0B90102C0660F771F8A955B
:1000F000E2F7CB01809584238BBB0895913069F49E
:1001000048B321E030E0B90102C0660F771F8A953D
:10011000E2F7CB01842B88BB089548B321E030E09F
:10012000B90102C0660F771F8A95E2F7CB0180956F
:10013000842388BB0895913069F445B321E030E011
:10014000B90102C0660F771F8A95E2F7CB01842BB5
:1001500085BB089545B321E030E0B90102C0660FC8
:10016000771F8A95E2F7CB018095842385BB08959C
:10017000913069F442B321E030E0B90102C0660F6A
:10018000771F8A95E2F7CB01842B82BB089542B397
:1001900021E030E0B90102C0660F771F8A95E2F7CF
:1001A000CB018095842382BB0895913069F44DB1D1
:1001B00021E030E0B90102C0660F771F8A95E2F7AF
:1001C000CB01842B8DB908954DB121E030E0B90108
:1001D00002C0660F771F8A95E2F7CB0180958423D2
:1001E0008DB90895913069F44EB121E030E0B90144
:1001F00002C0660F771F8A95E2F7CB01842B8EB978
:1002000008954EB121E030E0B90102C0660F771FBA
:100210008A95E2F7CB01809584238EB908959130B9
:1002200069F44FB721E030E0B90102C0660F771FD3
:100230008A95E2F7CB01842B8FBF08954FB721E059
:1002400030E0B90102C0660F771F8A95E2F7CB0153
:10025000809584238FBF089580E0A0C0982F969545
:1002600096959695282F2770913061F138F092304D
:1002700009F44CC0933009F46DC08FC0E82FF0E052
:10028000EE0FFF1FE05AFF4F9081913069F49AB34F
:1002900041E050E0BA0102C0660F771F2A95E2F7ED
:1002A0009B01292B2ABB79C09AB341E050E0BA01E7
:1002B00002C0660F771F2A95E2F79B01209529233C
:1002C0002ABB6BC0E82FF0E0EE0FFF1FE05AFF4F94
:1002D0009081913069F497B341E050E0BA0102C0D7
:1002E000660F771F2A95E2F79B01292B27BB55C084
:1002F00097B341E050E0BA0102C0660F771F2A951C
:10030000E2F79B012095292327BB47C0E82FF0E0A7
:10031000EE0FFF1FE05AFF4F9081913069F494B3C4
:1003200041E050E0BA0102C0660F771F2A95E2F75C
:100330009B01292B24BB31C094B341E050E0BA01AA
:1003400002C0660F771F2A95E2F79B0120952923AB
:1003500024BB23C0E82FF0E0EE0FFF1FE05AFF4F51
:100360009081913069F491B341E050E0BA0102C04C
:10037000660F771F2A95E2F79B01292B21BB0DC041
:1003800091B341E050E0BA0102C0660F771F2A9591
:10039000E2F79B012095292321BB8F5F803208F46F
:1003A0005DCF0895CF93C82F8BB38F709C2F907F14
:1003B000892B8BBB60E089E00E94500060E08BE0FD
:1003C0000E9450002FEF31EE84E0215030408040F9
:1003D000E1F700C0000061E08BE00E9450008FE177
:1003E0009EE40197F1F700C000002BB330E1C39FFA
:1003F000C0011124922F9F70892B8BBB60E08BE092
:100400000E9450008FEF91EE24E0815090402040F8
:10041000E1F700C0000061E08BE00E9450008FE334
:100420009FE10197F1F700C00000CF9108952FEFF1
:1004300089EF90E0215080409040E1F700C000003B
:1004400060E08AE00E94500083E30E94D2012FEF17
:1004500082E597E0215080409040E1F700C0000025
:1004600082E30E94D20188E20E94D20186E00E94CB
:10047000D2018CE00E94D20181E00E94D2018FE380
:100480009FE10197F1F700C000000895CF93C82FB6
:100490008BB38F709C2F907F892B8BBB61E089E0A1
:1004A0000E94500060E08BE00E9450002FEF31EE80
:1004B00084E0215030408040E1F700C0000061E05E
:1004C0008BE00E9450008FE39FE10197F1F700C09D
:1004D00000002BB330E1C39FC0011124922F9F7005
:1004E000892B8BBB60E08BE00E9450008FEF91EE78
:1004F00024E0815090402040E1F700C0000061E01E
:100500008BE00E9450008FE39FE10197F1F700C05C
:100510000000CF9108950F931F93CF938C01C0E0FB
:1005200003C00E944602CF5FF801EC0FF11D8081ED
:100530008111F7CFCF911F910F910895CF93C0E014
:1005400009C08C2F8F7080680E94D20180E00E94C9
:100550004602CF5FC031A8F380E80E94D201CF915C
:1005600008950E942C010E9445030E94170278946E
:100570008FB18230B1F018F4813031F0F9CF88308A
:10058000E9F0893041F1F4CF8091C200813081F7E8
:100590001092C2000E949E0280EA90E00E948B02AC
:1005A000E7CF8091C200813019F71092C2000E94FB
:1005B0009E0288EA90E00E948B02DACF8091C2000E
:1005C0008130B1F61092C2000E949E0281EB90E051
:1005D0000E948B02CDCF8091C200813049F61092EB
:1005E000C2000E949E0289EB90E00E948B02C0CF65
:1005F0001F920F920FB60F9211242F933F934F9398
:100600005F936F937F938F939F93AF93BF93EF937A
:10061000FF938FB1823089F018F4813031F024C01B
:10062000883099F08930C9F01FC061E087E10E94ED
:10063000500081E08093C20017C060E087E10E9413
:10064000500081E08093C2000FC061E086E10E940B
:10065000500081E08093C20007C060E086E10E9404
:10066000500081E08093C200FF91EF91BF91AF9164
:100670009F918F917F916F915F914F913F912F91BA
:100680000F900FBE0F901F90189561E086E20E94B8
:10069000500061E087E20E9450000895EE0FFF1FB6
:0C06A0000590F491E02D0994F894FFCF30
:1006AC00010101010101010101010101010101012E
:1006BC000101010101010101000000000100000025
:1006CC000101010101010101010101010100010010
:1006DC0001010101010101010101010101010101FE
:1006EC0041637431204F4E0041637431204F4646B4
:1006FC000041637432204F4E0041637432204F46E8
:02070C004600A5
:00000001FF
